:020000021000EC
:10FC000001C00FC1112494B714BE892F8D7011F05B
:10FC1000892F01D185E08093810082E08093C0002C
:10FC200088E18093C10086E08093C2008CE08093DD
:10FC3000C4008EE0DAD0209A84E024E23DEF91E027
:10FC4000309385002093840096BBB09BFECF189A1A
:10FC5000A8958150A9F7CC24DD24BBD0813471F460
:10FC6000B8D0182FC8D0123811F482E005C011386E
:10FC700011F486E001C083E0A4D0A0C0823411F466
:10FC800084E103C0853419F485E0BDD097C0853583
:10FC9000A1F49FD0082F10E09CD0E82EFF24FE2C6A
:10FCA000EE24E02AF12A8F2D881F8827881F8BBF1A
:10FCB000EE0CFF1CA0D0670181C0863521F484E0E2
:10FCC000A2D080E0D9CF843609F04AC082D090E03B
:10FCD000182F00277ED090E0082B192B7AD0B82E51
:10FCE000E801E12C51E0F52E74D0F70181937F01FA
:10FCF0002197D1F780D0F5E4BF1689F4E601E12C15
:10FD000041E0F42E08C0CE012196F70161917F01F8
:10FD1000A0D00150104001151105A9F74FC0C60130
:10FD200063E040E050E07DD07601C0E0D1E0888122
:10FD300090E0498150E0542F4427482B592B2296BC
:10FD4000C70161E06ED082E090E0E80EF91E02503B
:10FD5000104069F7C60165E040E050E062D02EC077
:10FD60008437F1F436D090E0D82FCC2732D090E011
:10FD7000C82BD92B2ED0182F3ED0153449F486012C
:10FD8000C8010F5F1F4F5DD01CD02197C9F716C067
:10FD90008601F80187918F0114D02197D1F70EC009
:10FDA000853739F428D08EE10CD087E90AD085E078
:10FDB00063CF813511F488E018D01DD080E101D0E7
:10FDC0004CCF982F8091C00085FFFCCF9093C60048
:10FDD00008958091C00087FFFCCF8091C00084FD12
:10FDE00001C0A8958091C6000895E0E6F0E098E192
:10FDF000908380830895EDDF803219F088E0F5DF8D
:10FE0000FFCF84E1DECF1F93182FE3DF1150E9F716
:10FE1000F2DF1F910895282E80E0E7DFE0E0FF2762
:10FE20000994FC010A0167BFE895112407B600FC9C
:10FE3000FDCF667029F0452B19F481E187BFE89565
:10FE40000895F999FECF92BD81BDF89A992780B5A2
:10FE50000895262FF999FECF1FBA92BD81BD20BD0E
:0EFE60000FB6F894FA9AF99A0FBE019608951B
:02FFFE000206F9
:040000031000FC00ED
:00000001FF
