:020000021000EC
:10FC000001C0D5C0112484B714BE982F9D7009F08F
:10FC100006D185E08093810082E08093C00088E176
:10FC20008093C10086E08093C2008CE08093C40082
:10FC30008EE0E0D0209A24E084E29DEF31E09093C2
:10FC400085008093840036BBB09BFECF189AA895A0
:10FC50002150A9F700E010E0C1D0813469F4BED092
:10FC6000C82FCED0C23811F482E004C0C13809F4E4
:10FC700094C083E0ACD098C0823411F484E103C016
:10FC8000853419F485E0C4D08FC0853569F4A6D0D9
:10FC9000082FA4D010E0182B812F881F8827881FD9
:10FCA0008BBF000F111F7FC0863521F484E0B0D0D8
:10FCB00080E0E0CF843609F048C090D0C82FD0E073
:10FCC000DC2FCC278BD0C82B89D0B82E7E01C12C3D
:10FCD000DD24D39483D0F60181936F01F1E0EF1A14
:10FCE000F108C1F78DD025E4B21210C06E01D39493
:10FCF0007801C0E0D1E006C06991C701EFEFEE1ACC
:10FD0000FE0A9BD0CC15DD05B9F74EC040E050E0AF
:10FD100063E0C8014CD06801E12CFF24F394F701A3
:10FD20004081818150E0582BF2E0EF0EF11C61E040
:10FD3000C6013DD022E0C20ED11C229781F740E0DF
:10FD400050E065E0C80133D02FC08437F9F446D0C5
:10FD5000C82FD0E0DC2FCC2741D0C82B3FD0F82EC5
:10FD60004FD085E4F8120AC07801C701EFEFEE1A10
:10FD7000FE0A5BD02CD02197C1F716C07801F7019D
:10FD800087917F0124D02197D1F70EC0853739F4B0
:10FD900037D08EE11CD087E91AD086E06BCF813551
:10FDA00011F488E027D02CD080E111D055CFFC0190
:10FDB0000A0167BFE895112407B600FCFDCF667005
:10FDC00029F0452B19F481E187BFE89508959091BA
:10FDD000C00095FFFCCF8093C60008958091C000BD
:10FDE00087FFFCCF8091C00084FD01C0A895809161
:10FDF000C6000895E0E6F0E098E1908380830895DE
:10FE0000EDDF803219F088E0F5DFFFCF84E1DFCF4E
:10FE1000CF93C82FE3DFC150E9F7CF91F1CF282E60
:10FE200080E0E8DFE0E0FF270994F999FECF92BD7A
:10FE300081BDF89A992780B50895262FF999FECFAC
:10FE40001FBA92BD81BD20BD0FB6F894FA9AF99AF7
:06FE50000FBE01960895AB
:02FFFE000206F9
:040000031000FC00ED
:00000001FF
